:100000000C9462000C948A000C948A000C948A0070
:100010000C948A000C948A000C948A000C948A0038
:100020000C948A000C948A000C948A000C948A0028
:100030000C948A000C948A000C948A000C948A0018
:100040000C9457050C948A000C9425050C94FF041D
:100050000C948A000C948A000C948A000C948A00F8
:100060000C948A000C948A000000000024002700F1
:100070002A0000000000250028002B0000000008D6
:10008000000201000003040700000000000000005F
:1000900000000000230026002900040404040404D6
:1000A0000404020202020202030303030303010227
:1000B00004081020408001020408102001020408F6
:1000C0001020A10511241FBECFEFD8E0DEBFCDBFA9
:1000D00011E0A0E0B1E0ECE7F3E102C005900D9281
:1000E000A034B107D9F721E0A0E4B1E001C01D922E
:1000F000A83FB207E1F710E0C2E6D0E004C02197C4
:10010000FE010E94B109C136D107C9F70E94EE0570
:100110000C94BC090C940000E0914901F0914A0153
:100120000190F081E02D682F89E491E009948F928D
:100130009F92AF92BF92CF92DF92EF92FF92CF93B6
:10014000DF93A091ED01882311F03A2F01C030E038
:100150008091EE0190E0880F991F80579F4FC090CB
:10016000F301D090F401E090F501F090F60140E049
:1001700050E0BA01FC01C591D49128812A232313B0
:100180000FC04A015B012FEF821A920AA20AB20A3B
:100190004C155D056E057F0538F4B501A401EACF65
:1001A000342F252FCB0104C030E020E080E090E028
:1001B000632F722FDF91CF91FF90EF90DF90CF9060
:1001C000BF90AF909F908F900895CF92DF92EF9263
:1001D000FF920F931F93CF93DF936C017A018B01F2
:1001E000C0E0D0E0CE15DF0589F0D8016D918D011A
:1001F000D601ED91FC910190F081E02DC6010995A9
:10020000892B11F47E0102C02196ECCFC701DF914A
:10021000CF911F910F91FF90EF90DF90CF900895B5
:10022000089580E090E00895FC01538D448D252FC2
:1002300030E0842F90E0821B930B541710F0CF9680
:10024000089501970895FC01918D828D981761F0B2
:10025000828DDF01A80FB11D5D968C91928D9F5FFD
:100260009F73928F90E008958FEF9FEF0895FC01A8
:10027000918D828D981731F0828DE80FF11D858D5B
:1002800090E008958FEF9FEF0895FC01918D228DEE
:10029000892F90E0805C9F4F821B91098F73992773
:1002A000089589E491E00E94450121E0892B09F439
:1002B00020E0822F0895FC01848DDF01A80FB11D7D
:1002C000A35ABF4F2C91848D90E001968F7399278C
:1002D000848FA689B7892C93A089B1898C91806479
:1002E0008C93938D848D981306C00288F389E02D3A
:1002F00080818F7D80830895EF92FF920F931F93EB
:10030000CF93DF93EC0181E0888F9B8D8C8D9813C8
:1003100005C0E889F989808185FD24C0F62E0B8D02
:1003200010E00F5F1F4F0F731127E02E8C8DE81226
:100330000CC00FB607FCFACFE889F989808185FFE8
:10034000F5CFCE010E945B01F1CF8B8DFE01E80F4E
:10035000F11DE35AFF4FF0820B8FEA89FB89808100
:10036000806207C0EE89FF896083E889F98980810E
:100370008064808381E090E0DF91CF911F910F91A5
:10038000FF90EF900895CF93DF93EC01888D882341
:10039000C9F0EA89FB89808185FD05C0A889B989F2
:1003A0008C9186FD0FC00FB607FCF5CF808185FFCD
:1003B000F2CFA889B9898C9185FFEDCFCE010E943B
:1003C0005B01E7CFDF91CF91089580E090E0892B2A
:1003D00029F00E94510181110C940000089590E0D1
:1003E000FC01E458FF4F3491FC01E255FF4F24918A
:1003F000FC01E656FF4FE491EE2309F43BC03323A2
:1004000039F1333091F038F43130A9F0323001F560
:1004100084B58F7D12C0373091F03830A1F0343080
:10042000B9F4809180008F7D03C0809180008F7728
:10043000809380000DC084B58F7784BD09C0809102
:10044000B0008F7703C08091B0008F7D8093B000A3
:10045000F0E0EE0FFF1FEE58FF4FA591B4918FB75C
:10046000F894EC91611103C020952E2301C02E2B2E
:100470002C938FBF0895CF93DF9390E0FC01E2555A
:10048000FF4F2491FC01E656FF4F8491882361F1D0
:1004900090E0880F991FFC01E859FF4FC591D49156
:1004A000FC01EE58FF4FA591B491611109C09FB7AF
:1004B000F8948881209582238883EC912E230BC0A9
:1004C000623061F49FB7F8943881822F809583233E
:1004D0008883EC912E2B2C939FBF06C08FB7F89486
:1004E000E8812E2B28838FBFDF91CF9108953FB7EE
:1004F000F8948091410190914201A0914301B09103
:10050000440126B5A89B05C02F3F19F00196A11DF7
:10051000B11D3FBFBA2FA92F982F8827820F911D99
:10052000A11DB11DBC01CD0142E0660F771F881FE0
:10053000991F4A95D1F708958F929F92AF92BF92DB
:10054000CF92DF92EF92FF926B017C010E947702C3
:100550004B015C01C114D104E104F104F1F00E94EB
:100560007702DC01CB0188199909AA09BB09883EE9
:100570009340A105B10570F321E0C21AD108E1084A
:10058000F10888EE880E83E0981EA11CB11CC114EE
:10059000D104E104F10419F7DDCFFF90EF90DF9073
:1005A000CF90BF90AF909F908F900895CF92DF92A1
:1005B000EF92FF920F931F93CF93DF93CDB7DEB7E8
:1005C000C054D1400FB6F894DEBF0FBECDBF2FB7D9
:1005D000F8948091450190914601A0914701B09116
:1005E00048012FBF4091EF015091F0016091F1015E
:1005F0007091F2018C019D01041B150B260B370B2A
:10060000B901A801403D57406105710518F480917A
:10061000F701BCC08093EF019093F001A093F1012A
:10062000B093F2011092EA011092E9011092E801F0
:100630001092E7011092E60161E08091EB010E94C7
:10064000EF016AEF70E080E090E00E949C0261E0C0
:100650008091EB010E943B0260E08091EB010E94DF
:10066000EF0164E170E080E090E00E949C02F89469
:1006700061E08091EB010E94EF018BE990E001972E
:10068000F1F762E08091EB010E943B0283E290E08F
:100690000197F1F780E00E949700672B682B692B88
:1006A00021F41092F70178943EC081E00E949700F7
:1006B000672B682B692BA9F38E010F5F1F4F6E010B
:1006C0002FEBC21A2EEFD20A780180E00E94970029
:1006D000F701608371838283938381E00E94970096
:1006E000F7016483758386839783F8E0EF0EF11C2E
:1006F000EC14FD0451F7789420E030E0F8014081DB
:10070000518162817381C480D580E680F780411574
:1007100051056105710529F0C114D104E104F1040A
:1007200021F41092F70180E031C0F90183E0F595E2
:10073000E7958A95E1F7EA51FE4F8081880F4C15C5
:100740005D056E057F0508F4816080832F5F3F4F54
:10075000085F1F4F2832310589F62091EA0130E009
:100760004091E6018091E70190E0840F911D409156
:10077000E801840F911D4091E901840F911D992793
:100780002817390771F681E08093F701C05CDE4FCE
:100790000FB6F894DEBF0FBECDBFDF91CF911F9192
:1007A0000F91FF90EF90DF90CF900895009769F040
:1007B000FC0101900020E9F73197AF01481B590B6C
:1007C000BC0189E491E00C94E50080E090E008959C
:1007D0008F929F92AF92BF920F931F93CF93DF930D
:1007E000CDB7DEB7A1970FB6F894DEBF0FBECDBF71
:1007F00019A2423008F44AE08E010F5D1F4F842E8B
:10080000912CA12CB12CA50194010E948F09E62FF7
:10081000B901CA0101501109EA3014F4E05D01C0C8
:10082000E95CD801EC93232B242B252B61F7C8011D
:100830000E94D603A1960FB6F894DEBF0FBECDBFBF
:10084000DF91CF911F910F91BF90AF909F908F90AC
:1008500008954F925F926F927F928F929F92AF9284
:10086000BF92CF92DF92EF92FF926B017C01B42E88
:100870009B01AC010E948A09882319F082E191E072
:1008800027C026013701E89477F82FEF3FEF4FE7B5
:100890005FE7C301B2010E948A0981110DC02FEFE9
:1008A0003FEF4FE75FE7C301B2010E94C007181690
:1008B0001CF486E191E00CC02FEF3FEF4FE75FE4BF
:1008C000C701B6010E941809181684F48AE191E064
:1008D000FF90EF90DF90CF90BF90AF909F908F9060
:1008E0007F906F905F904F900C94D6032FEF3FEF67
:1008F0004FE75FECC701B6010E94C00787FDE6CF56
:1009000020E030E0A901C701B6010E94C00787FFBF
:1009100009C08DE20E948C004C01F7FAF094F7F8C0
:10092000F09402C0812C912CA12C60E070E080E05A
:100930009FE3AB1441F020E030E040E251E40E943C
:10094000C507A394F6CF9B01AC01C701B6010E9475
:1009500054072B013C010E9437086B017C010E9467
:1009600066089B01AC01C301B2010E9453072B0131
:100970003C014AE0C701B6010E94E8037C01E80C93
:10098000F91CBB2029F08EE20E948C00E80EF91EB3
:10099000DB2CDD2021F120E030E040E251E4C30116
:1009A000B2010E941D092B013C010E9437084B0136
:1009B000A12CB12C4AE0C501B4010E94E803E80E65
:1009C000F91EC501B4010E9466089B01AC01C30178
:1009D000B2010E9453072B013C01DA94DACFC70120
:1009E000FF90EF90DF90CF90BF90AF909F908F904F
:1009F0007F906F905F904F9008950E94B7091F926B
:100A00000F920FB60F9211242F933F934F935F9342
:100A10006F937F938F939F93AF93BF93EF93FF93C6
:100A200089E491E00E945B01FF91EF91BF91AF914A
:100A30009F918F917F916F915F914F913F912F91F6
:100A40000F900FBE0F901F9018951F920F920FB628
:100A50000F9211242F938F939F93EF93FF93E09125
:100A60005901F0915A018081E0915F01F09160019C
:100A700082FD12C09081809162018F5F8F732091FF
:100A80006301821751F0E0916201F0E0E75BFE4FF5
:100A9000958F8093620101C08081FF91EF919F91BA
:100AA0008F912F910F900FBE0F901F9018951F924E
:100AB0000F920FB60F9211242F933F938F939F9312
:100AC000AF93BF938091450190914601A09147015A
:100AD000B09148013091400123E0230F2D3720F4DD
:100AE0000196A11DB11D05C026E8230F0296A11D88
:100AF000B11D209340018093450190934601A0933E
:100B00004701B09348018091410190914201A09129
:100B10004301B09144010196A11DB11D8093410193
:100B200090934201A0934301B0934401BF91AF91D0
:100B30009F918F913F912F910F900FBE0F901F901B
:100B40001895E9E4F1E01382128288EE93E0A0E0C8
:100B5000B0E084839583A683B78384E091E091839A
:100B6000808385EC90E09587848784EC90E097877C
:100B7000868780EC90E0918B808B81EC90E0938B6A
:100B8000828B82EC90E0958B848B86EC90E0978B47
:100B9000868B118E128E138E148EA6EEB1E085E038
:100BA00015968C9315978BE016968C931697E3EB1E
:100BB000F0E0E4911796EC931797EFE9F0E0E491F9
:100BC0001896EC93189740E85EE360E070E01D969D
:100BD0004D935D936D937C9350970895789484B56D
:100BE000826084BD84B5816084BD85B5826085BD29
:100BF00085B5816085BD80916E00816080936E00B7
:100C000010928100809181008260809381008091A8
:100C10008100816080938100809180008160809359
:100C200080008091B10084608093B1008091B00019
:100C300081608093B00080917A00846080937A0014
:100C400080917A00826080937A0080917A0081603E
:100C500080937A0080917A00806880937A00109265
:100C6000C100E0915901F0915A0182E08083E09146
:100C70005501F09156011082E0915701F091580111
:100C800080E1808310926101E0915D01F0915E014D
:100C900086E08083E0915B01F0915C01808180615E
:100CA0008083E0915B01F0915C01808188608083AA
:100CB000E0915B01F0915C01808180688083E0912C
:100CC0005B01F0915C0180818F7D80838EE191E0FA
:100CD0000E94D6038BE291E00E94D60362E08091ED
:100CE000EB010E943B0280E398EFAFEFBFEF8093F0
:100CF000EF019093F001A093F101B093F20110E4A1
:100D000010937C0080917A00806480937A008091B7
:100D10007A0086FDFCCFC091780080917900D0E008
:100D2000D82B0E94D6028823B1F18091EC018B3040
:100D300041F188F18551823070F56091E60170E0F3
:100D400080E090E00E94660820E030E040E853E454
:100D50000E941D096B017C018091E701682F70E002
:100D600080E090E00E9468089B01AC01C701B601D9
:100D70000E9454072DEC3CEC4CEC5DE30E941D09F5
:100D800007C06091E60170E080E090E00E94660894
:100D90004B015C0106C0812C912C90ECA92E9FE7A1
:100DA000B92E0E94D602882309F440C08091EC013C
:100DB0008B3029F0D8F18551823058F037C06091DE
:100DC000E80170E080E090E00E9466086B017C0121
:100DD00033C00091E801602F6F7770E080E090E011
:100DE0000E94680820E030E040E853E40E941D09BA
:100DF0006B017C016091E90170E080E090E00E946D
:100E000068089B01AC01C701B6010E9454072DEC94
:100E10003CEC4CEC5DE30E941D096B017C0107FF7B
:100E20000BC0F7FAF094F7F8F09406C0C12CD12C5F
:100E300080ECE82E8FE7F82E8EE291E00E94D60338
:100E40002E010D2E000C66087708D7FF0CC08DE22E
:100E50000E948C0066277727CB01641975098609E3
:100E600097094AE003C04AE0C301B2010E94E803C7
:100E700084E391E00E94D60342E0C501B4010E94E0
:100E800029048AE391E00E94D60342E0C701B6013B
:100E90000E94290464E670E080E090E00E949C02D9
:100EA0000E94E5012DCF5058BB27AA270E946B074F
:100EB0000C94DE080E94D00838F00E94D70820F079
:100EC00039F49F3F19F426F40C94CD080EF4E09504
:100ED000E7FB0C94C708E92F0E94EF0858F3BA17F4
:100EE000620773078407950720F079F4A6F50C9440
:100EF00011090EF4E0950B2EBA2FA02D0B01B901AC
:100F000090010C01CA01A0011124FF27591B99F07F
:100F1000593F50F4503E68F11A16F040A22F232F8B
:100F2000342F4427585FF3CF469537952795A795DB
:100F3000F0405395C9F77EF41F16BA0B620B730B82
:100F4000840BBAF09150A1F0FF0FBB1F661F771FF3
:100F5000881FC2F70EC0BA0F621F731F841F48F4A8
:100F6000879577956795B795F7959E3F08F0B0CF31
:100F70009395880F08F09927EE0F97958795089518
:100F80000E94A30808F481E008950E94D9070C94F8
:100F9000DE080E94D70858F00E94D00840F029F4DB
:100FA0005F3F29F00C94C70851110C9412090C945E
:100FB000CD080E94EF0868F39923B1F3552391F30C
:100FC000951B550BBB27AA2762177307840738F0B8
:100FD0009F5F5F4F220F331F441FAA1FA9F335D015
:100FE0000E2E3AF0E0E832D091505040E695001CC9
:100FF000CAF72BD0FE2F29D0660F771F881FBB1F83
:10100000261737074807AB07B0E809F0BB0B802D60
:10101000BF01FF2793585F4F3AF09E3F510578F08C
:101020000C94C7080C9412095F3FE4F3983ED4F384
:10103000869577956795B795F7959F5FC9F7880F60
:10104000911D9695879597F90895E1E0660F771FB2
:10105000881FBB1F621773078407BA0720F0621B43
:10106000730B840BBA0BEE1F88F7E09508950E946E
:10107000F70888F09F5798F0B92F9927B751B0F02B
:10108000E1F0660F771F881F991F1AF0BA95C9F70C
:1010900014C0B13091F00E941109B1E008950C9490
:1010A0001109672F782F8827B85F39F0B93FCCF343
:1010B000869577956795B395D9F73EF49095809589
:1010C000709561957F4F8F4F9F4F0895E89409C0A9
:1010D00097FB3EF490958095709561957F4F8F4F6B
:1010E0009F4F9923A9F0F92F96E9BB279395F69581
:1010F000879577956795B795F111F8CFFAF4BB0FFF
:1011000011F460FF1BC06F5F7F4F8F4F9F4F16C062
:10111000882311F096E911C0772321F09EE8872FEC
:10112000762F05C0662371F096E8862F70E060E0A8
:101130002AF09A95660F771F881FDAF7880F969521
:10114000879597F90895990F0008550FAA0BE0E8C5
:10115000FEEF16161706E807F907C0F01216130679
:10116000E407F50798F0621B730B840B950B39F4B9
:101170000A2661F0232B242B252B21F408950A261F
:1011800009F4A140A6958FEF811D811D089597F95F
:101190009F6780E870E060E008959FEF80EC08951D
:1011A00000240A9416161706180609060895002446
:1011B0000A9412161306140605060895092E0394C0
:1011C000000C11F4882352F0BB0F40F4BF2B11F434
:1011D00060FF04C06F5F7F4F8F4F9F4F089557FD93
:1011E0009058440F551F59F05F3F71F04795880F95
:1011F00097FB991F61F09F3F79F08795089512162C
:1012000013061406551FF2CF4695F1DF08C01616D7
:1012100017061806991FF1CF869571056105089488
:101220000895E894BB2766277727CB0197F908959F
:101230000E94A30808F48FEF08950E9430090C94CF
:10124000DE080E94D00838F00E94D70820F09523CD
:1012500011F00C94C7080C94CD0811240C941209B9
:101260000E94EF0870F3959FC1F3950F50E0551F52
:10127000629FF001729FBB27F00DB11D639FAA27EB
:10128000F00DB11DAA1F649F6627B00DA11D661F3A
:10129000829F2227B00DA11D621F739FB00DA11D5B
:1012A000621F839FA00D611D221F749F3327A00D15
:1012B000611D231F849F600D211D822F762F6A2FB1
:1012C00011249F5750409AF0F1F088234AF0EE0F16
:1012D000FF1FBB1F661F771F881F91505040A9F743
:1012E0009E3F510580F00C94C7080C9412095F3F93
:1012F000E4F3983ED4F3869577956795B795F7957F
:10130000E7959F5FC1F7FE2B880F911D96958795F6
:1013100097F908950E94A308880B990B0895A1E2FC
:101320001A2EAA1BBB1BFD010DC0AA1FBB1FEE1F5F
:10133000FF1FA217B307E407F50720F0A21BB30BAA
:10134000E40BF50B661F771F881F991F1A9469F726
:1013500060957095809590959B01AC01BD01CF0182
:101360000895EE0FFF1F0590F491E02D099481E0A0
:0C13700090E0F8940C94BC09F894FFCFB6
:10137C00000000007C01E5001401C30145012301BC
:10138C0037016E616E00696E66006F7666002044F0
:10139C0048543131207465737420000D0A002056B6
:1013AC00203D20002048203D20002054203D2000DE
:107E0000112484B714BE81FFF0D085E080938100F7
:107E100082E08093C00088E18093C10086E0809377
:107E2000C20080E18093C4008EE0C9D0259A86E02C
:107E300020E33CEF91E0309385002093840096BBD3
:107E4000B09BFECF1D9AA8958150A9F7CC24DD24C4
:107E500088248394B5E0AB2EA1E19A2EF3E0BF2EE7
:107E6000A2D0813461F49FD0082FAFD0023811F036
:107E7000013811F484E001C083E08DD089C08234E0
:107E800011F484E103C0853419F485E0A6D080C0E4
:107E9000853579F488D0E82EFF2485D0082F10E0AE
:107EA000102F00270E291F29000F111F8ED06801E7
:107EB0006FC0863521F484E090D080E0DECF843638
:107EC00009F040C070D06FD0082F6DD080E0C81688
:107ED00080E7D80618F4F601B7BEE895C0E0D1E017
:107EE00062D089930C17E1F7F0E0CF16F0E7DF06D8
:107EF00018F0F601B7BEE89568D007B600FCFDCFD4
:107F0000A601A0E0B1E02C9130E011968C91119780
:107F100090E0982F8827822B932B1296FA010C0160
:107F200087BEE89511244E5F5F4FF1E0A038BF0790
:107F300051F7F601A7BEE89507B600FCFDCF97BE46
:107F4000E89526C08437B1F42ED02DD0F82E2BD052
:107F50003CD0F601EF2C8F010F5F1F4F84911BD097
:107F6000EA94F801C1F70894C11CD11CFA94CF0C13
:107F7000D11C0EC0853739F428D08EE10CD085E9AC
:107F80000AD08FE07ACF813511F488E018D01DD067
:107F900080E101D065CF982F8091C00085FFFCCF94
:107FA0009093C60008958091C00087FFFCCF809118
:107FB000C00084FD01C0A8958091C6000895E0E648
:107FC000F0E098E1908380830895EDDF803219F02E
:107FD00088E0F5DFFFCF84E1DECF1F93182FE3DFCA
:107FE0001150E9F7F2DF1F91089580E0E8DFEE27F6
:047FF000FF270994CA
:027FFE00040479
:0400000300007E007B
:00000001FF