:100000000C9462000C948A000C948A000C948A0070
:100010000C948A000C948A000C948A000C948A0038
:100020000C948A000C948A000C948A000C948A0028
:100030000C948A000C948A000C948A000C948A0018
:100040000C9479030C948A000C949C020C94760214
:100050000C948A000C948A000C948A000C948A00F8
:100060000C944C040C948A0000000000240027002B
:100070002A0000000000250028002B0000000000DE
:1000800023002600290004040404040404040202DA
:100090000202020203030303030301020408102007
:1000A0004080010204081020010204081020000012
:1000B0000008000201000003040700000000000027
:1000C0000000080B11241FBECFEFD8E0DEBFCDBF6C
:1000D00011E0A0E0B1E0ECE1F7E102C005900D9283
:1000E000AA38B107D9F723E0AAE8B1E001C01D9210
:1000F000AA31B207E1F710E0C2E6D0E004C02197D0
:10010000FE010E94810BC136D107C9F70E949707F3
:100110000C948C0B0C940000FC01918D828D98172F
:1001200061F0828DDF01A80FB11D5D968C91928DDB
:100130009F5F9F73928F90E008958FEF9FEF0895D8
:10014000FC01918D828D981731F0828DE80FF11DA1
:10015000858D90E008958FEF9FEF0895FC01918DBC
:10016000228D892F90E0805C9F4F821B91098F73B5
:100170009927089589E592E00E94AE0021E0892B3D
:1001800009F420E0822F0895FC01848DDF01A80F7F
:10019000B11DA35ABF4F2C91848D90E001968F73AF
:1001A0009927848FA689B7892C93A089B1898C91CE
:1001B00080648C93938D848D981306C00288F38994
:1001C000E02D80818F7D80830895EF92FF920F93C1
:1001D0001F93CF93DF93EC0181E0888F9B8D8C8DF3
:1001E000981305C0E889F989808185FD24C0F62E21
:1001F0000B8D10E00F5F1F4F0F731127E02E8C8DBA
:10020000E8120CC00FB607FCFACFE889F9898081A3
:1002100085FFF5CFCE010E94C400F1CF8B8DFE018A
:10022000E80FF11DE35AFF4FF0820B8FEA89FB893B
:100230008081806207C0EE89FF896083E889F9893F
:1002400080818064808381E090E0DF91CF911F9175
:100250000F91FF90EF900895CF93DF93EC01888D7D
:100260008823C9F0EA89FB89808185FD05C0A889BA
:10027000B9898C9186FD0FC00FB607FCF5CF808140
:1002800085FFF2CFA889B9898C9185FFEDCFCE018A
:100290000E94C400E7CFDF91CF91089580E090E005
:1002A000892B29F00E94BA0081110C940000089556
:1002B0003FB7F8948091D6019091D701A091D801D1
:1002C000B091D90126B5A89B05C02F3F19F0019622
:1002D000A11DB11D3FBFBA2FA92F982F8827820FCC
:1002E000911DA11DB11DBC01CD0142E0660F771F1C
:1002F000881F991F4A95D1F708958F929F92AF92C8
:10030000BF92CF92DF92EF92FF926B017C010E942D
:1003100058014B015C01C114D104E104F104F1F076
:100320000E945801DC01CB0188199909AA09BB096F
:10033000883E9340A105B10570F321E0C21AD108AF
:10034000E108F10888EE880E83E0981EA11CB11C1C
:10035000C114D104E104F10419F7DDCFFF90EF904F
:10036000DF90CF90BF90AF909F908F90089585EDD4
:100370008093BC008091BC0084FDFCCF10923402BD
:1003800008954091AC01262F30E0240F311D213219
:100390003105DCF4209134022430C9F4FC0180E002
:1003A00090E0861758F43091AC012191DC01A657FA
:1003B000BE4FA30FB11D2C930196F3CF8091AC01DA
:1003C000680F6093AC0180E0089581E0089582E0B9
:1003D00008950895E091DB018091DA01E81730F487
:1003E000F0E0E452FE4F808190E008958FEF9FEFA0
:1003F00008959091DB018091DA01981750F4E92F6C
:10040000F0E0E452FE4F208130E09F5F9093DB01EB
:1004100002C02FEF3FEFC90108958091DA0190E00B
:100420002091DB01821B91090895CF92DF92EF9218
:10043000FF920F931F93CF93DF937C01262F972F6B
:100440008A0180913502882391F0C62FD72F6E0143
:10045000C40ED51ECC15DD0571F06991D701ED9163
:10046000FC910190F081E02DC7010995F3CF642F35
:10047000822F0E94C101C801DF91CF911F910F917E
:10048000FF90EF90DF90CF900895CF93DF931F926E
:10049000CDB7DEB76983209135022223D1F02091B8
:1004A0005802203240F021E030E0FC013383228307
:1004B00080E090E015C080913602E82FF0E0E95C22
:1004C000FD4F998190838F5F80933602809358020D
:1004D00005C061E0CE0101960E94C10181E090E07B
:1004E0000F90DF91CF9108950E94870B1F920F927A
:1004F0000FB60F9211242F933F934F935F936F93F7
:100500007F938F939F93AF93BF93EF93FF9389E56F
:1005100092E00E94C400FF91EF91BF91AF919F9133
:100520008F917F916F915F914F913F912F910F909C
:100530000FBE0F901F9018951F920F920FB60F923B
:1005400011242F938F939F93EF93FF93E091690270
:10055000F0916A028081E0916F02F091700282FD59
:1005600012C09081809172028F5F8F73209173020D
:10057000821751F0E0917202F0E0E75AFD4F958F3B
:100580008093720201C08081FF91EF919F918F91C2
:100590002F910F900FBE0F901F901895833081F010
:1005A00028F4813099F08230A1F008958730A9F0C5
:1005B0008830B9F08430D1F4809180008F7D03C001
:1005C000809180008F7780938000089584B58F7725
:1005D00002C084B58F7D84BD08958091B0008F776F
:1005E00003C08091B0008F7D8093B00008951F9369
:1005F000CF93DF93282F30E0F901E255FF4F84912C
:10060000F901E656FF4FD491F901EA57FF4FC49123
:10061000CC23C9F0162F81110E94CE02EC2FF0E0FE
:10062000EE0FFF1FEE58FF4FA591B4918FB7F894CE
:10063000111105C09C91ED2FE095E92302C0EC91CA
:10064000ED2BEC938FBFDF91CF911F910895CF9346
:10065000DF93EC0160E08E810E94F70261E08E8101
:100660000E94F70260E08E810E94F7028BE891E021
:100670000197F1F7DF91CF910895CF93DF9390E049
:10068000FC01E656FF4F2491FC01EA57FF4F84918D
:10069000882361F190E0880F991FFC01E859FF4F12
:1006A000C591D491FC01EE58FF4FA591B491611111
:1006B00009C09FB7F8948881209582238883EC91A4
:1006C0002E230BC0623061F49FB7F8943881822FDB
:1006D000809583238883EC912E2B2C939FBF06C09B
:1006E0008FB7F894E8812E2B28838FBFDF91CF91AD
:1006F00008951F920F920FB60F9211242F933F93DC
:100700008F939F93AF93BF938091D2019091D30128
:10071000A091D401B091D5013091D10123E0230FF4
:100720002D3720F40196A11DB11D05C026E8230F29
:100730000296A11DB11D2093D1018093D201909307
:10074000D301A093D401B093D5018091D6019091AB
:10075000D701A091D801B091D9010196A11DB11D79
:100760008093D6019093D701A093D801B093D9017B
:10077000BF91AF919F918F913F912F910F900FBE9D
:100780000F901F901895CF92DF92EF92FF920F93E8
:100790001F93CF93DF937C016C0187E0C80ED11CBF
:1007A000C0E0D0E0062F10E0B8010C2E02C0759515
:1007B00067950A94E2F76170F60181916F010E94DA
:1007C000F7022196C430D10579F7C701DF91CF91A7
:1007D0001F910F91FF90EF90DF90CF900C94270323
:1007E000CF92DF92EF92FF920F931F93CF93DF93FD
:1007F000EC01F62E642F8C810E94F7028D818F3FD1
:1008000019F060E00E94F7028F850F2D10E084FF41
:1008100025C06E0187E0C80ED11CE12CF12CB80177
:100820000E2C02C0759567950A94E2F76170F60187
:1008300081916F010E94F702FFEFEF1AFF0A88E033
:10084000E816F10461F7CE01DF91CF911F910F916E
:10085000FF90EF90DF90CF900C942703B80184E0D5
:10086000759567958A95E1F7CE010E94C3036F2DB8
:10087000CE01DF91CF911F910F91FF90EF90DF900C
:10088000CF900C94C30341E00E94F00381E090E01C
:10089000089540E00C94F0031F920F920FB60F9250
:1008A00011242F933F934F935F936F937F938F9375
:1008B0009F93AF93BF93EF93FF938091B900887F8D
:1008C000803609F49CC068F5883209F45BC090F466
:1008D000803109F454C038F4882309F4F6C0883014
:1008E00009F44DC0F6C0883109F44CC0803209F4D7
:1008F0005DC0EFC0803409F468C048F4803309F467
:1009000055C0883309F0E5C080933202D8C08035E5
:1009100009F44FC0883509F45DC0883409F0D9C0A6
:10092000D6C0883909F4C7C0A8F4883709F467C06D
:1009300038F4883609F463C0803709F460C0C9C050
:10094000883809F4B8C0803909F45FC0803809F0EC
:10095000C0C05BC0803B09F486C038F4803A09F41B
:1009600066C0883A09F47FC0B4C0803C09F4A7C0CF
:10097000883C09F4A4C0883B09F48AC0AAC08091CD
:100980000F0210C09091310280913002981770F5DB
:10099000E091310281E08E0F80933102F0E0E05F60
:1009A000FD4F80818093BB0085EC86C0809332022E
:1009B0008EC0E091310281E08E0F809331028091F0
:1009C000BB00F0E0E05FFD4F8083909131028091A9
:1009D00030026EC0E091310281E08E0F80933102CF
:1009E0008091BB00F0E0E05FFD4F80838091330297
:1009F00081116DC081E080930E0284EA61C083E0C2
:100A0000809334021092D001CFCF8091D0018032F8
:100A100008F051C0E091D00181E08E0F8093D001A9
:100A20008091BB00F0E0E055FE4F8083BDCF85ECA8
:100A30008093BC00109234028091D001803230F457
:100A4000E091D001F0E0E055FE4F10826091D001BE
:100A500070E0E091AE01F091AF0180EB91E009957B
:100A60001092D00136C084E0809334021092AD0120
:100A70001092AC01E091AA01F091AB01099580912F
:100A8000AC01811105C081E08093AC0110928A0114
:100A9000E091AD0181E08E0F8093AD01F0E0E6576B
:100AA000FE4F80818093BB009091AD018091AC019D
:100AB000981708F479CF85E88093BC000AC085ECCC
:100AC0008093BC001092340204C0109232020E9443
:100AD000B701FF91EF91BF91AF919F918F917F915E
:100AE0006F915F914F913F912F910F900FBE0F909B
:100AF0001F901895CF92DF92EF92FF920F931F9362
:100B0000CF93DF936C017A018B01C0E0D0E0CE156A
:100B1000DF0589F0D8016D918D01D601ED91FC9131
:100B20000190F081E02DC6010995892B11F47E0119
:100B300002C02196ECCFC701DF91CF911F910F9199
:100B4000FF90EF90DF90CF900895EF92FF920F9378
:100B50001F93CF93DF93EC01623018F08F8588608C
:100B60008F876B8B1C8A80E48D8B80E18E8B80E578
:100B70008F8B61E08C810E943D038D818F3F19F046
:100B800061E00E943D0361E08E810E943D037E0191
:100B900087E0E80EF11C00E010E08F8584FD03C0C3
:100BA00084E090E002C088E090E0081719074CF458
:100BB00061E0F70181917F010E943D030F5F1F4FAC
:100BC000ECCF8BE39DE00197F1F760E08C810E9410
:100BD000F70260E08E810E94F7028D818F3F19F04D
:100BE00060E00E94F7026F8564FD1DC063E0CE01E6
:100BF0000E94C3030BE416E4C8010197F1F763E018
:100C0000CE010E94C303C8010197F1F763E0CE0152
:100C10000E94C30383E592E00197F1F762E0CE0101
:100C20000E94C30316C06062CE010E9449048BE497
:100C300096E40197F1F76F856062CE010E94490446
:100C400083E592E00197F1F76F856062CE010E9423
:100C500049046F856062CE010E94490484E0888B5C
:100C60006CE0CE010E94490461E0CE010E9449047B
:100C70008BE39FE10197F1F782E0898B66E0CE017B
:100C8000DF91CF911F910F91FF90EF900C94490449
:100C9000682F86EF92E00C944502843008F083E0E0
:100CA00090911503891710F08FEF890FE82FF0E06E
:100CB000EE5FFC4F6489606882E093E00C94490425
:100CC000CF93DF93EBEBF0E08491E7EAF0E0D4918F
:100CD000E3E9F0E0C491CC2391F081110E94CE02AF
:100CE000EC2FF0E0EE0FFF1FE458FF4FA591B491F9
:100CF000EC91ED2381E090E021F480E002C080E0FF
:100D000090E0DF91CF910895209158029091570281
:100D1000213208F04AC0809134028111FCCF32E0C8
:100D20003093340231E0309333023FEF309332029C
:100D30001092310220933002A7E3B2E040E152E08A
:100D4000FA013E2F341B321718F43D913193F9CF3D
:100D500010920F0220910F02990F922B90930F0285
:100D600090910E02913061F410920E0290910F0258
:100D70009093BB009091BC0093FDF8CF95EC01C01F
:100D800095EE9093BC00909134029230E1F39091F3
:100D900032029F3F79F080913202803241F080919F
:100DA0003202803331F084E005C081E003C082E08C
:100DB00001C083E010923602109258021092350260
:100DC00008956115710579F0FB0101900020E9F7A4
:100DD0003197AF01461B570BDC01ED91FC9102806E
:100DE000F381E02D099480E090E008954F925F92A6
:100DF0006F927F92EF92FF920F931F93CF93DF93A7
:100E0000CDB7DEB7A1970FB6F894DEBF0FBECDBF4A
:100E10007C01FA01CB0119A2223008F42AE08E01EC
:100E20000F5D1F4F422E512C612C712CBF01A3016D
:100E300092010E945F0BF901CA01015011096A3049
:100E400014F4605D01C0695CD8016C93232B242BE2
:100E5000252B61F7B801C7010E94E106A1960FB6E4
:100E6000F894DEBF0FBECDBFDF91CF911F910F91E0
:100E7000FF90EF907F906F905F904F900895CF928A
:100E8000DF92EF92FF920F931F93CF93DF93EC01CA
:100E90006A017B01E881F9810190F081E02D6DE22A
:100EA00009958C0144275527BA014C195D096E0933
:100EB0007F092AE0CE010E94F606800F911FDF9184
:100EC000CF911F910F91FF90EF90DF90CF900895F9
:100ED000CF93DF93AC01990F660B770B77FF05C0BB
:100EE00082E093E00E943F0705C02AE082E093E0A1
:100EF0000E94F606EC0167E871E082E093E00E9450
:100F0000E1068C0F9D1FDF91CF910895AC01990FE1
:100F1000660B770B77FF04C089E592E00C943F07DE
:100F20002AE089E592E00C94F6060C94E106CF9352
:100F3000DF9300D000D01F92CDB7DEB7789484B590
:100F4000826084BD84B5816084BD85B5826085BDC5
:100F500085B5816085BD80916E00816080936E0053
:100F60001092810080918100826080938100809145
:100F700081008160809381008091800081608093F6
:100F800080008091B10084608093B1008091B000B6
:100F900081608093B00080917A00846080937A00B1
:100FA00080917A00826080937A0080917A008160DB
:100FB00080937A0080917A00806880937A00109202
:100FC000C100E0916902F0916A0282E08083E091C1
:100FD0006502F09166021082E0916702F09168026A
:100FE0008FEC808310927102E0916D02F0916E029D
:100FF00086E08083E0916B02F0916C0280818061D9
:101000008083E0916B02F0916C0280818860808324
:10101000E0916B02F0916C02808180688083E091A6
:101020006B02F0916C0280818F7D80831092DB01D6
:101030001092DA0110923602109258021092340285
:1010400011E01093330210920E0261E082E10E94DF
:10105000F70261E083E10E94F7028091B9008E7F80
:101060008093B9008091B9008D7F8093B90088E4A6
:101070008093B80085E48093BC001093350288E625
:1010800080935702109236021092580260E086EF69
:1010900092E00E94450285E590E00E94480689E5BD
:1010A00090E00E94480685E090E00E94480681E0BA
:1010B00090E00E94480688E290E00E94480685E0A1
:1010C00090E00E94480687E190E00E9448060E9456
:1010D000840664E082E093E00E94A50561E08CE074
:1010E0000E943D0361E08BE00E943D0361E08AE0E5
:1010F0000E943D0361E089E00E943D03CE0101961C
:101100006C019BEEA92EB12C23EC822E912C35E0A4
:10111000532E5C0C4CED642E41E0742E85E0F601FC
:1011200011928A95E9F761E08DE00E943D0361E04C
:101130008DE00E94F702C5010197F1F760E08DE0B4
:101140000E94F70269E170E080E090E00E947D017A
:1011500061E08DE00E94F70260E08DE00E943D03B7
:10116000C5010197F1F70E946006019709F44AC092
:101170000E946006892BE1F3C5010197F1F70E94F7
:101180006006892B09F43EC00E9460060197E1F3D6
:10119000860187E0E82EF12C0E946006892BE1F39E
:1011A000C4010197F1F70E9460068130910529F092
:1011B000F1E0EF1AF10880F70EC00E2C01C0880F85
:1011C0000A94EAF7F8019081892B80830E946006D7
:1011D0000197E1F3EDCF0F5F1F4F5012DACF298156
:1011E0009A814B813C81892F820F840F830F5D810F
:1011F000851308C040930D0230930C0220930B021C
:1012000090930A0281E08093350288E6809357022A
:10121000109236021092580260E086EF92E00E942F
:1012200045020E948406809134028111FCCF81E046
:1012300080933402809333029FEF90933202109296
:10124000310296E09093300280930F0280910F025A
:10125000806D80930F0280910E02813061F41092B4
:101260000E0280910F028093BB008091BC0083FD31
:10127000F8CF85EC01C085EE8093BC0080913402EC
:101280008130E1F380913102873018F4809131028E
:1012900001C087E0A0E1B2E0ECEDF1E09E2F9619ED
:1012A000981718F49D919193F9CF1092DB018093D8
:1012B000DA0186EF92E00E94F901282F2F7722951C
:1012C0002F708F7090E0FAE02F9F800D911D1124F8
:1012D000909305028093040286EF92E00E94F90148
:1012E000282F22952F708F7090E03AE0239F800D79
:1012F000911D1124909307028093060286EF92E0DD
:101300000E94F901282F2F7322952F708F7090E083
:10131000EAE02E9F800D911D112490930902809385
:10132000080286EF92E00E94F901282F22952F7083
:101330008F7090E0FAE02F9F800D911D1124909303
:1013400003028093020286EF92E00E94F901282FA7
:1013500022952F708F7090E03AE0239F800D911DB1
:101360001124909301028093000286EF92E00E9484
:10137000F901282F22952F708F7090E0EAE02E9FC0
:10138000800D911D11249093FF018093FE0186EF43
:1013900092E00E94F901282F22952F708F7090E023
:1013A000FAE02F9F800D911D11248053984F909348
:1013B000FD018093FC0180E00E944D0668E271E02F
:1013C00082E093E00E9495078091080290910902C3
:1013D0000E9468076CE271E082E093E00E9495074A
:1013E00080910602909107020E9468076CE271E00A
:1013F00082E093E00E94950780910402909105029B
:101400000E94680781E00E944D066EE271E082E072
:1014100093E00E94950740910D0250E060E070E07B
:101420002AE082E093E00E94F60668E371E082E041
:1014300093E00E94950740910C0250E060E070E05C
:101440002AE082E093E00E94F60682E00E944D06C8
:101450006AE371E082E093E00E94950740910B02FD
:1014600050E060E070E02AE082E093E00E94F6063F
:1014700068E371E082E093E00E94950740910A02E0
:1014800050E060E070E02AE082E093E00E94F6061F
:1014900083E00E944D068091060290910702813000
:1014A0009105B1F01CF4892B39F037C082309105D9
:1014B000C9F0039709F131C08091040290910502AF
:1014C00001970E9718F461E471E01FC060E022C03C
:1014D000809104029091050201970E97B8F761E59B
:1014E00071E013C0809104029091050201970E975C
:1014F00068F761E671E009C08091040290910502ED
:1015000001970E9718F761E771E082E093E00E947F
:10151000950761E08CE00E94F70280910D02853210
:1015200010F461E001C060E08BE00E94F70280915E
:101530000D02863210F061E001C060E089E00E9497
:10154000F70280910B02883310F461E001C060E083
:101550008AE00E94F70280910802909109020E949D
:1015600086076CE271E089E592E00E949507809120
:101570000602909107020E9486076CE271E089E5FD
:1015800092E00E94950780910402909105020E94CA
:10159000860761E871E089E592E00E9495078091F5
:1015A0000202909103020E94860765E871E089E5D6
:1015B00092E00E94950780910002909101020E94A2
:1015C000860765E871E089E592E00E9495078091C1
:1015D000FE019091FF010E94860765E871E089E5B0
:1015E00092E00E9495078091FC019091FD010E947C
:1015F000860767E871E089E592E00E94E10664EF02
:1016000071E080E090E00E947D010E944E0186CD55
:10161000E9E5F2E01382128288EE93E0A0E0B0E008
:1016200084839583A683B78324E031E031832083CC
:1016300025EC30E03587248724EC30E03787268797
:1016400020EC30E0318B208B21EC30E0338B228B8F
:1016500022EC30E0358B248B26EC30E0378B268B68
:10166000118E128E138E148EE6EFF2E01382128228
:1016700084839583A683B78384E191E091838083FB
:10168000E2E0F3E01382128284E291E091838083AE
:1016900087E084838FEF858386E0868385E0878378
:1016A00084E0808783E0818782E0828713861486C6
:1016B00015861686178661E0CF010C94A505A1E278
:1016C0001A2EAA1BBB1BFD010DC0AA1FBB1FEE1FBC
:1016D000FF1FA217B307E407F50720F0A21BB30B07
:1016E000E40BF50B661F771F881F991F1A9469F783
:1016F00060957095809590959B01AC01BD01CF01DF
:101700000895EE0FFF1F0590F491E02D099481E0FC
:0C17100090E0F8940C948C0BF894FFCF40
:10171C0000000000E5007A05AE008C00A0002C0152
:10172C0000000000450215020D02F901EA01E90171
:10173C000000000043047A0554494D453A004E48D8
:10174C0049455420444F3A002C00444F20414D3A17
:10175C000064616F207472756E67206C616E20314D
:10176C000064616F207472756E67206C616E20323C
:10177C000064616F207472756E67206C616E20332B
:10178C000064616F207472756E67206C616E20341A
:0A179C00002D2D2D002F000D0A0076
:107E0000112484B714BE81FFF0D085E080938100F7
:107E100082E08093C00088E18093C10086E0809377
:107E2000C20080E18093C4008EE0C9D0259A86E02C
:107E300020E33CEF91E0309385002093840096BBD3
:107E4000B09BFECF1D9AA8958150A9F7CC24DD24C4
:107E500088248394B5E0AB2EA1E19A2EF3E0BF2EE7
:107E6000A2D0813461F49FD0082FAFD0023811F036
:107E7000013811F484E001C083E08DD089C08234E0
:107E800011F484E103C0853419F485E0A6D080C0E4
:107E9000853579F488D0E82EFF2485D0082F10E0AE
:107EA000102F00270E291F29000F111F8ED06801E7
:107EB0006FC0863521F484E090D080E0DECF843638
:107EC00009F040C070D06FD0082F6DD080E0C81688
:107ED00080E7D80618F4F601B7BEE895C0E0D1E017
:107EE00062D089930C17E1F7F0E0CF16F0E7DF06D8
:107EF00018F0F601B7BEE89568D007B600FCFDCFD4
:107F0000A601A0E0B1E02C9130E011968C91119780
:107F100090E0982F8827822B932B1296FA010C0160
:107F200087BEE89511244E5F5F4FF1E0A038BF0790
:107F300051F7F601A7BEE89507B600FCFDCF97BE46
:107F4000E89526C08437B1F42ED02DD0F82E2BD052
:107F50003CD0F601EF2C8F010F5F1F4F84911BD097
:107F6000EA94F801C1F70894C11CD11CFA94CF0C13
:107F7000D11C0EC0853739F428D08EE10CD085E9AC
:107F80000AD08FE07ACF813511F488E018D01DD067
:107F900080E101D065CF982F8091C00085FFFCCF94
:107FA0009093C60008958091C00087FFFCCF809118
:107FB000C00084FD01C0A8958091C6000895E0E648
:107FC000F0E098E1908380830895EDDF803219F02E
:107FD00088E0F5DFFFCF84E1DECF1F93182FE3DFCA
:107FE0001150E9F7F2DF1F91089580E0E8DFEE27F6
:047FF000FF270994CA
:027FFE00040479
:0400000300007E007B
:00000001FF